:1000000012C024C023C022C021C020C01FC01EC0F7
:100010001DC01CC01BC01AC019C018C017C016C014
:1000200015C014C013C011241FBECFE5D4E0DEBF3D
:10003000CDBF10E0A0E6B0E0ECEBF1E002C005902F
:100040000D92AC37B107D9F7AED0B6C0D9CF877013
:1000500081B960B9089584E986BF089506B607FEA0
:10006000FDCF81B1887F90E00895CF93C4EAC6BFE9
:10007000F5DF8031910541F088339105C1F3089790
:1000800019F08AE090E002C080E090E0CF910895FE
:10009000880F682B63B984E886BFE0DF8032910562
:1000A00041F08833910541F0489749F08AE090E0AB
:1000B000089581E090E0089582E090E0089580E066
:1000C00090E00895EF92FF921F93CF93DF931F92DA
:1000D000CDB7DEB77C0114E86623C1F0F70181914A
:1000E0007F0183B916BF6983B9DF698180339105C8
:1000F00081F08833910521F0889729F46150ECCF85
:1001000082E090E008C08AE090E005C080E090E0E6
:1001100002C081E090E00F90DF91CF911F91FF909E
:10012000EF900895FF920F931F93CF93DF93D82FF3
:100130008B01F42EC0E099DF0A9769F160E08D2F02
:10014000A7DF8230910511F18A30910519F00197EE
:1001500031F410C084E986BF82E090E01EC06F2DAC
:10016000C801B0DF8230910589F08A30910521F015
:10017000019739F4CF5F0AC084E986BF83E090E03D
:100180000CC084E986BF80E090E007C0C83C98F2CC
:1001900084E090E002C081E090E0DF91CF911F9178
:1001A0000F91FF9008956FEF82E051DF4AE160E622
:0C01B00070E08DE4B7DFF7CFF894FFCFCC
:1001BC006162636465666768696A6B6C6D6E6F70AB
:0C01CC007172737475767778797A000090
:00000001FF
