:1000000012C019C018C017C016C015C014C013C044
:1000100012C011C010C00FC00EC00DC00CC00BC06C
:100020000AC009C008C011241FBECFE5D4E0DEBF5E
:10003000CDBFACD0CAC0E4CF11B880E280B908957A
:1000400084E986BF089506B607FEFDCF81B1887F9B
:1000500090E00895CF93C4EAC6BFF5DF80319105E3
:1000600041F088339105C1F3089719F08AE090E0D8
:1000700002C080E090E0CF910895880F682B63B9AB
:1000800084E886BFE0DF8032910541F08833910536
:1000900041F0489749F08AE090E0089581E090E0CF
:1000A000089582E090E0089580E090E00895EF9256
:1000B000FF921F93CF93DF931F92CDB7DEB77C01E2
:1000C00014E86623C1F0F70181917F0183B916BF5F
:1000D0006983B9DF69818033910581F088339105A7
:1000E00021F0889729F46150ECCF82E090E008C0BD
:1000F0008AE090E005C080E090E002C081E090E0FE
:100100000F90DF91CF911F91FF90EF900895FF9294
:100110000F931F93CF93DF93D82F8B01F42EC0E062
:1001200099DF0A9741F160E08D2FA7DF82309105BA
:10013000E9F08A30910519F0019731F410C084E993
:1001400086BF82E090E01CC06F2DC801B0DF823016
:10015000910561F08A30910521F0019779F4CF5F24
:1001600005C084E986BF83E090E00AC0C83CC0F2C5
:1001700084E090E005C081E090E002C080E090E083
:10018000DF91CF911F910F91FF900895CF93DF934F
:1001900000D000D0CDB7DEB78AE0898383EB8A83B5
:1001A0008EE58B8383E38C8347DF44E0BE016F5F82
:1001B0007F4F85EAACDF2FEF83ED90E32150804045
:0E01C0009040E1F700C00000EFCFF894FFCFB1
:00000001FF
