:1000000012C019C018C017C016C015C014C013C044
:1000100012C011C010C00FC00EC00DC00CC00BC06C
:100020000AC009C008C011241FBECFE5D4E0DEBF5E
:10003000CDBF17D026C0E4CF8BEF81BB81E087BB5B
:10004000089592B3947092BB92B3282F2B7F922B7A
:1000500092BBC09898B382FB882780F9892B88BB14
:100060000895EADF80E0C1E0C80FEBDF2FEF89E6FB
:1000700098E1215080409040E1F700C000008C2FB3
:06008000F2CFF894FFCF5F
:00000001FF
