:1000000012C024C023C022C021C020C01FC01EC0F7
:100010001DC01CC01BC01AC019C018C017C016C014
:1000200015C014C013C011241FBECFE5D4E0DEBF3D
:10003000CDBF11E0A0E6B0E0EEEAF4E002C005902A
:100040000D92AA33B107D9F7B2D12FC2D9CF0F93EE
:100050001F93CF93DF93CDB7DEB7A0970FB6F89479
:10006000DEBF0FBECDBF8E010F5F1F4F20E2F80134
:1000700011922A95E9F7FC0101900020E9F7AF0100
:10008000481B590BBC01C80107D240E2B80184E407
:100090004DD1A0960FB6F894DEBF0FBECDBFDF9155
:1000A000CF911F910F910895CF93DF931F92CDB7FA
:1000B000DEB7898341E0BE016F5F7F4F84E436D1B4
:1000C0000F90DF91CF910895462FBC0184E42EC19B
:1000D0008A98899A919899C0CF93C62FC2988F71A8
:1000E0008062B7D08C2FB5D0C29ACF9108951F935C
:1000F000CF93DF93EB01142FC2988F718062A9D048
:10010000612FCE018AD0C29ADF91CF911F910895BD
:1001100061E085E0E1DF60E286E0DEDF6CE480E064
:10012000DBDF6FEF84E0D8CFC2988FEF96D0C29A12
:1001300008951F93CF93DF93EB01142FC2988F7113
:1001400088D0412FBE01CE0174D0C29ADF91CF91E9
:100150001F910895C2988F717CD080E07ED0C29AA2
:1001600008951F93CF93DF93EC01162F6EE480E088
:10017000B3DF9198C29881EE6CD0C29A80E690E08D
:1001800066DF60E787E0A8DF8DE690E060DF88E764
:1001900090E05DDF87E1DEDF87DF8BE890E057DF0F
:1001A00088E0D8DF81DF8DE990E051DFBDDF7CDFC3
:1001B000C29880EA4ED0612FCE012FD0C29A86EA33
:1001C00090E045DF88E790E042DF87E1C3DF6CDF46
:1001D000919A85E38A95F1F70000919886EB90E07B
:1001E00036DF88E790E033DF87E1B4DF5DDF8BE85F
:1001F00090E02DDF88E0AEDF57DF8DE990E027DF6C
:1002000093DFDF91CF911F914FCFBC9887B38C6262
:1002100087BB81E58DB9C29A0895282FFC018E2FE6
:10022000821B861728F481918FB9779BFECFF7CF79
:100230000895362FFB012E2F231B241748F4DC01D1
:100240002D91CD012FB9779BFECF2FB12193F3CF05
:1002500008958FB9779BFECF08958FB9779BFECF16
:100260008FB10895877081B960B9089584E986BF18
:10027000089506B607FEFDCF81B1887F90E008950E
:10028000CF93C4EAC6BFF5DF8031910541F08833D2
:100290009105C1F3089719F08AE090E002C080E070
:1002A00090E0CF910895880F682B63B984E886BFEA
:1002B000E0DF8032910541F08833910541F04897A5
:1002C00049F08AE090E0089581E090E0089582E0AE
:1002D00090E0089580E090E008950F931F93CF93EE
:1002E000DF93C62F8C01D4E8CC23B1F0F8018191C3
:1002F0008F0183B9D6BFBDDF8033910581F088338C
:10030000910521F0889729F4C150EECF82E090E06A
:1003100008C08AE090E005C080E090E002C081E083
:1003200090E0DF91CF911F910F910895FF920F936D
:100330001F93CF93DF93D82F8B01F42EC0E0A0DF63
:100340000A9769F160E08D2FAEDF8230910511F1DF
:100350008A30910519F0019731F410C084E986BF05
:1003600082E090E01EC06F2DC801B7DF823091059A
:1003700089F08A30910521F0019739F4CF5F0AC0E6
:1003800084E986BF83E090E00CC084E986BF80E00A
:1003900090E007C0C83C98F284E090E002C081E0A1
:1003A00090E0DF91CF911F910F91FF900895CF932F
:1003B000DF93CDB7DEB7C058D1090FB6F894DEBFD2
:1003C0000FBECDBF6FEF83E04DDF83EC90E03FDEEB
:1003D0007FDE83ED90E03BDE9BDE84EE90E037DE57
:1003E0008DE990E034DEA0DE5FDEAE014F595F4F55
:1003F0009E012F5B3F4FDE019196CE0101964C018D
:1004000060E0B42EC52ED22EE32EFA2E0B2F182F1D
:10041000A92C669F802D1124FA018193AF01862FAC
:100420008095F90181939F01862F880F860F8D9308
:10043000862F8695F3E08F9FC001112495958795AF
:10044000689F802D1124F40181934F016F5F60320A
:1004500001F787EF90E0FBDD60E28B2D9C2D81DEC4
:1004600081E091E0F4DD60E28D2D9E2D7ADE8CE05E
:1004700091E0EDDD60E28F2D902F73DE87E191E05A
:10048000E6DD60E2812F9A2D6CDE82E291E0DFDD15
:100490008CE291E0DCDDFFCFFB01DC0102C00190CA
:0E04A0000D9241505040D8F70895F894FFCFC8
:1004AE00636C656172204D41585F52540074782020
:1004BE00666C757368656400524632345F46494611
:1004CE004F5F5354415455533A2000524632345FD5
:1004DE004F4253455256455F54583A20005374616B
:1004EE007475733A20007061796C6F616420777255
:1004FE00697474656E007061796C6F6164207365E8
:10050E006E740074776920696E697469616C6973C1
:10051E006564007266323420696E697469616C6953
:10052E00736564007266323420747820636F6E6671
:10053E006967757265640073656E642064617461C9
:10054E000073656E642064617461320073656E645D
:10055E002064617461330073656E6420646174613C
:10056E003400646174612073656E740064756D6D22
:0A057E0079206D65737361676500F5
:00000001FF
