:1000000012C02CC02BC02AC029C028C027C026C0BF
:1000100025C024C023C022C021C020C01FC01EC0D4
:100020001DC01CC01BC011241FBECFE5D4E0DEBF25
:10003000CDBF10E0A0E6B0E0EEEDF7E002C0059025
:100040000D92A63BB107D9F720E0A6EBB0E001C0C6
:100050001D92A73BB207E1F717D3BFC3D1CF87B338
:10006000836087BBC098C19A8AE085BF80E48BBF5C
:100070003AC28E70869508958091B600811106C0AF
:10008000C1988FEF57D2C19A8074089580E0089587
:10009000C19850D2C19A08958FEFFACFFDDF8E70CC
:1000A000869508958FEFF4DF8E7086950895CF932F
:1000B000C62FC1988F7180623DD28C2F3BD2C19ADE
:1000C000CF91089562E085E0F2DF66E286E0EFDF3F
:1000D00060E281E1ECDF1092B6006FE480E0E7DFE0
:1000E000C09A08951F93CF93DF93EC01C19881E6E6
:1000F00021D2182F40E2BE01CE0100D2C19A60E4A5
:1001000087E0D5DF812FDF91CF911F9108951F9355
:10011000CF93DF93EB01142FC1988F710BD2412F36
:10012000BE01CE01EBD1C19ADF91CF911F9108950D
:100130009C01862F663018F4B901865FE8CF0895D8
:10014000CF93DF931F92CDB7DEB7863040F441E006
:10015000BE016F5F7F4F8F5EDADF898101C080E073
:100160000F90DF91CF910895CF93DF931F92CDB77A
:10017000DEB741E0BE016F5F7F4F87E1C8DF898155
:1001800080710F90DF91CF910895CF93DF931F92ED
:10019000CDB7DEB741E0BE016F5F7F4F87E1B7DFCC
:1001A000898181700F90DF91CF910895CF93DF9374
:1001B0001F92CDB7DEB741E0BE016F5F7F4F85E094
:1001C000A6DF89810F90DF91CF910895CF93DF93C0
:1001D0001F92CDB7DEB741E0BE016F5F7F4F86E073
:1001E00096DF89810F90DF91CF910895CF93DF93B0
:1001F0001F92CDB7DEB741E0BE016F5F7F4F88E051
:1002000086DF898182958F700F90DF91CF9108955D
:10021000CF93DF931F92CDB7DEB741E0BE016F5F92
:100220007F4F88E074DF89818F700F90DF91CF91CD
:1002300008951F93CF93DF93EB01142FC1988F7113
:10024000806278D1612FCE0169D1C19ADF91CF91BF
:100250001F910895462FBC0180E1EBCFCF93DF9330
:100260001F92CDB7DEB741E0BE016F5F7F4F80E0E8
:100270004EDF898180FF09C08E7F898341E0BE0106
:100280006F5F7F4F80E0D5DFC0980F90DF91CF91F7
:100290000895CF93DF931F92CDB7DEB741E0BE0143
:1002A0006F5F7F4F80E033DF898181FF09C08D7FE1
:1002B000898341E0BE016F5F7F4F80E0BADFC09865
:1002C0000F90DF91CF9108959C01842F463020F448
:1002D000462FB901865FADCF0895CF93DF9300D04D
:1002E00000D01F92CDB7DEB762E085E0E0DE66E2C7
:1002F00086E0DDDE6FE382E0DADE83EF8D838C83E0
:100300008B838A83898345E0BE016F5F7F4F8AE0DC
:1003100090DF82EC8D838C838B838A83898345E095
:10032000BE016F5F7F4F8BE084DF83EC898341E008
:10033000BE016F5F7F4F8CE07CDF84EC898341E0FE
:10034000BE016F5F7F4F8DE074DF85EC898341E0F4
:10035000BE016F5F7F4F8EE06CDF86EC898341E0EA
:10036000BE016F5F7F4F8FE064DF60E281E19FDE5F
:1003700060E282E19CDE60E283E199DE60E284E19A
:1003800096DE60E285E193DE60E286E190DE109227
:10039000B6006FE480E08BDEC09A0F900F900F9054
:1003A0000F900F90DF91CF910895CF93DF931F921D
:1003B000CDB7DEB78983663048F4813238F4862FB2
:1003C00041E0BE016F5F7F4F8F5E33DF0F90DF91A3
:1003D000CF910895C09845E0BC018AE02ADFC09A19
:1003E000089545E0BC0180E124CF1F93CF93DF93B4
:1003F00000D000D01F92CDB7DEB7182F62E085E0A5
:1004000056DE66E286E053DE6CE480E050DE6FE2AA
:1004100084E04DDE1230C9F030F4112381F0113048
:1004200079F582EC0DC01430F1F0B0F0153041F5E3
:1004300082EC8D838C838B838A8386EC1AC083EF56
:100440008D838C838B838A8314C082EC8D838C8311
:100450008B838A8383EC0DC082EC8D838C838B83AA
:100460008A8384EC06C082EC8D838C838B838A83A1
:1004700085EC8983CE010196B4DFCE010196AADF17
:100480001092B6006EE480E012DE0F900F900F9095
:100490000F900F90DF91CF911F9108951F93CF93ED
:1004A000DF93EC01162F8091B6008111FCCFC0982C
:1004B00081E08093B6006EE480E0F9DDC19881EEC2
:1004C00039D0C19AC19880EA35D0612FCE0126D0AB
:1004D000C19AC09A8AE18A95F1F700C0C098DF916D
:1004E000CF911F91089587B3837C87BB87B38C62BC
:1004F00087BB81E58DB981E08EB90895362FFB0168
:100500002E2F231B241748F4DC012D91CD012FB988
:10051000779BFECF2FB12193F3CF0895282FFC01B5
:100520008E2F821B861728F481918FB9779BFECF7F
:10053000F7CF08958FB9779BFECF8FB1089587705D
:1005400081B960B9089584E986BF089506B607FEAB
:10055000FDCF81B1887F90E00895CF93C4EAC6BFF4
:10056000F5DF8031910541F088339105C1F308979B
:1005700019F08AE090E002C080E090E0CF91089509
:10058000880F682B63B984E886BFE0DF803291056D
:1005900041F08833910541F0489749F08AE090E0B6
:1005A000089581E090E0089582E090E0089580E071
:1005B00090E008950F931F93CF93DF93C62F8C0184
:1005C000D4E8CC23B1F0F80181918F0183B9D6BF73
:1005D000BDDF8033910581F08833910521F0889744
:1005E00029F4C150EECF82E090E008C08AE090E0AC
:1005F00005C080E090E002C081E090E0DF91CF9103
:100600001F910F910895FF920F931F93CF93DF9344
:10061000D82F8B01F42EC0E0A0DF0A9769F160E0CB
:100620008D2FAEDF8230910511F18A30910519F0DE
:10063000019731F410C084E986BF82E090E01EC0CB
:100640006F2DC801B7DF8230910589F08A3091059E
:1006500021F0019739F4CF5F0AC084E986BF83E0B7
:1006600090E00CC084E986BF80E090E007C0C83C01
:1006700098F284E090E002C081E090E0DF91CF91B9
:100680001F910F91FF900895CF93DF93CDB7DEB701
:10069000C054D1090FB6F894DEBF0FBECDBF6FEFC7
:1006A00082E04DDF80E2F82E8E010F5F1F4FF801D0
:1006B0002F2D11922A95E9F760E670E0C80186D0E7
:1006C00040E2B80183E79FDF8FEF93EDE0E38150D5
:1006D0009040E040E1F700C00000C1DCF8012F2DA0
:1006E00011922A95E9F760E770E0C8016FD040E207
:1006F000B80183E788DF8FEF93EDE0E3815090400E
:10070000E040E1F700C00000FFE728E381E0F1509E
:1007100020408040E1F700C00000789480E065DE72
:10072000F8012F2D11922A95E9F768E870E0C801C9
:100730004DD040E2B80183E766DF8FEF93EDE0E351
:1007400081509040E040E1F700C00000F8011192B4
:10075000FA94E9F76DE970E0C80138D040E2B801D9
:1007600083E751DFFFEF23ED80E3F150204080402D
:10077000E1F700C00000F12C90E2E92EF8012E2DE7
:1007800011922A95E9F76FEA70E0C8011FD040E2A4
:10079000B80183E738DFFE01B19620E0CF01219355
:1007A0002F5F2032E1F7F9A2F394FAA260E276DE3D
:1007B0008AEF8F1508F4F12C9FEFE1E1FAE79150F1
:1007C000E040F040E1F700C00000D8CFFB01DC01C1
:0E07D00001900D920020E1F70895F894FFCFFC
:1007DE007477695F696E697469616C6973656400C9
:1007EE00776C5F6D6F64756C655F696E697420669A
:1007FE00696E697368656400776C5F6D6F64756CA4
:10080E006520747820636F6E6672656400656E7421
:10081E006572696E67207768696C65283129007783
:06082E0068696C65000022
:00000001FF
