:1000000012C033C020C01FC01EC01DC01CC01BC0FA
:100010001AC01AC018C017C016C015C014C013C02B
:1000200012C011C010C011241FBECFE5D4E0DEBF46
:10003000CDBF20E0A0E6B0E001C01D92A236B2071D
:10004000E1F7D8D212C3DCCF1F920F920FB60F92F6
:1000500011248F93809160008F5F809360008F9157
:100060000F900FBE0F901F9018951F920F920FB612
:100070000F9211242F933F934F935F936F937F932E
:100080008F939F93AF93BF93CF93EF93FF93C198B9
:100090008FEFABD2C82FC19A85FF05C060E287E021
:1000A0004DD010926100C4FF09C060E187E046D0E6
:1000B000C09A8AE18A95F1F700C0C098C0FF04C0D9
:1000C000C19881EE92D2C19AFF91EF91CF91BF91E9
:1000D000AF919F918F917F916F915F914F913F91E0
:1000E0002F910F900FBE0F901F90189587B38360CC
:1000F00087BBC098C19A8AE085BF80E48BBF4EC29F
:100100008E708695089580916100811106C0C19816
:100110008FEF6BD2C19A8074089580E00895C198E2
:1001200064D2C19A08958FEFFACFFDDF8E70869565
:1001300008958FEFF4DF8E7086950895CF93DF9347
:100140001F92CDB7DEB7C1988F71806269834DD29F
:100150006981862F4AD2C19A0F90DF91CF9108957D
:1001600062E085E0EBDF66E286E0E8DF60E181E106
:10017000E5DF109261006FE480E0E0DFC09A08954F
:100180001F93CF93DF93EC01C19881E62ED2182FF5
:1001900040E1BE01CE010DD2C19A60E487E0CEDF1E
:1001A000812FDF91CF911F9108950F931F93CF93CC
:1001B000DF931F92CDB7DEB78B01C1988F71498352
:1001C00014D24981B801C801F4D1C19A0F90DF91CE
:1001D000CF911F910F9108959C01862F663018F4DE
:1001E000B901865FE2CF0895CF93DF931F92CDB719
:1001F000DEB7863040F441E0BE016F5F7F4F8F5E17
:10020000D4DF898101C080E00F90DF91CF91089504
:10021000CF93DF931F92CDB7DEB741E0BE016F5F92
:100220007F4F87E1C2DF898180710F90DF91CF918D
:100230000895CF93DF931F92CDB7DEB741E0BE01A3
:100240006F5F7F4F87E1B1DF898181700F90DF9110
:10025000CF910895CF93DF931F92CDB7DEB741E0E2
:10026000BE016F5F7F4F85E0A0DF89810F90DF9136
:10027000CF910895CF93DF931F92CDB7DEB741E0C2
:10028000BE016F5F7F4F86E090DF89810F90DF9125
:10029000CF910895CF93DF931F92CDB7DEB741E0A2
:1002A000BE016F5F7F4F88E080DF898182958F700C
:1002B0000F90DF91CF910895CF93DF931F92CDB729
:1002C000DEB741E0BE016F5F7F4F88E06EDF89815E
:1002D0008F700F90DF91CF9108950F931F93CF935D
:1002E000DF931F92CDB7DEB78B01C1988F7180620B
:1002F00049837BD14981642FC8016BD1C19A0F908A
:10030000DF91CF911F910F910895462FBC0180E19D
:10031000E4CFCF93DF931F92CDB7DEB741E0BE01AC
:100320006F5F7F4F80E041DF898180FF09C08E7F52
:10033000898341E0BE016F5F7F4F80E0CEDFC098D0
:100340000F90DF91CF910895CF93DF931F92CDB798
:10035000DEB741E0BE016F5F7F4F80E026DF89811D
:1003600081FF09C08D7F898341E0BE016F5F7F4FB0
:1003700080E0B3DFC0980F90DF91CF9108959C018A
:10038000842F463020F4462FB901865FA6CF08950A
:10039000CF93DF931F92CDB7DEB78983663048F4E1
:1003A000813238F4862F41E0BE016F5F7F4F8F5E50
:1003B00094DF0F90DF91CF910895C09845E0BC0184
:1003C0008AE08BDFC09A089545E0BC0180E185CFCB
:1003D0001F93CF93DF9300D000D01F92CDB7DEB72D
:1003E000182F62E085E0AADE66E286E0A7DE6CE414
:1003F00080E0A4DE6FE284E0A1DE1230C9F030F4C8
:10040000112381F0113079F582EC0DC01430F1F038
:10041000B0F0153041F582EC8D838C838B838A8319
:1004200086EC1AC087EE8D838C838B838A8314C0FD
:1004300082EC8D838C838B838A8383EC0DC082EC6A
:100440008D838C838B838A8384EC06C082EC8D83BE
:100450008C838B838A8385EC8983CE010196B4DFFC
:10046000CE010196AADF109261006EE480E066DEA4
:100470000F900F900F900F900F90DF91CF911F91E1
:100480000895CF93DF9300D000D01F92CDB7DEB791
:1004900062E085E053DE66E286E050DE6FE382E0F4
:1004A0004DDE87EE8D838C838B838A83898345E041
:1004B000BE016F5F7F4F8AE010DF82EC8D838C83FB
:1004C0008B838A83898345E0BE016F5F7F4F8BE01A
:1004D00004DF83EC898341E0BE016F5F7F4F8CE0D6
:1004E000FCDE84EC898341E0BE016F5F7F4F8DE0CD
:1004F000F4DE85EC898341E0BE016F5F7F4F8EE0C3
:10050000ECDE86EC898341E0BE016F5F7F4F8FE0B8
:10051000E4DE60E181E112DE60E182E10FDE60E1B4
:1005200083E10CDE60E184E109DE60E185E106DE65
:1005300060E186E103DE109261006FE480E0FEDDA1
:10054000C09A0F900F900F900F900F90DF91CF9166
:1005500008951F93CF93DF93EC01162F80916100D4
:100560008111FCCFC09881E0809361006EE480E04F
:10057000E5DDC19881EE39D0C19AC19880EA35D0C5
:10058000612FCE0126D0C19AC09A8AE18A95F1F7EF
:1005900000C0C098DF91CF911F91089587B3837CED
:1005A00087BB87B38C6287BB81E58DB981E08EB94B
:1005B0000895362FFB012E2F231B241748F4DC014E
:1005C0002D91CD012FB9779BFECF2FB12193F3CF82
:1005D0000895282FFC018E2F821B861728F4819105
:1005E0008FB9779BFECFF7CF08958FB9779BFECF5A
:1005F0008FB10895CF93DF93CDB7DEB760970FB675
:10060000F894DEBF0FBECDBF71DD2FE788E391E028
:10061000215080409040E1F700C00000789480E0D5
:10062000D7DE83B7856083BF89B7816089BFBA9AF7
:1006300010E004E0809160008E31E0F310926000E1
:1006400088B3802788BBFE01319680E081938F5F5D
:100650008031E1F719831F5F1A8360E1CE010196B3
:0E06600078DF1B3F38F310E0E5CFF894FFCFB2
:00000001FF
